:200000000C9464000C9445020C9400000C9400000C9400000C9400000C946B030C940000C7
:200020000C9400000C94C6010C9400000C94E7000C9400000C9400000C9400000C94000012
:200040000C9400000C9400000C945C020C9400000C9400005242460014D0020101144243C7
:20006000204D454741203136202020202000000100014D617920333120323030390031391D
:200080003A35303A313900003030313132323333343435001027E80364000A000100001053
:2000A00000011000010044535441434B454E440048535441434B454E440009006000A600F9
:2000C0000900D003B0000000F894EE27ECBBF1E0FBBFEBBFE5BFF8E1F1BDE1BD8DE0A2E05F
:2000E000BB27ED938A95E9F780E094E0A0E6ED930197E9F7EAEBF0E085919591009761F084
:20010000A591B59105901590BF01F00105900D920197E1F7FB01F0CFEFE5EDBFE4E0EEBF28
:20012000C0E6D1E00C94E10424971A93ED81FF2766277727E983FA836B837C8318E0E12FDE
:200140001150E030D9F0E981E07869F0E981FA816B817C810E943706A7E0B1E080E090E0B5
:200160000E942D0606C0E981FA816B817C810E943706E983FA836B837C83E1CFE9811881AE
:20018000269608951A9310E0E981FA813197E983FA83319659F0AB81BC81ED91AB83BC836F
:2001A000E127EA930E9494001E2FEECFE12F188125960895E8E9EAB9E0E0E0BDE9E1E9B93C
:2001C00008955D9BFECFE881ECB921960895AA93EA93FA93EFB7EA931A935F9B26C0E091F3
:2001E000CD03E03029F4E0E0E4BDE4E0E5BD02C0E0E0E4BD1CB1A091CD03AE31B0F4E09156
:20020000CD03EF5FE093CD03E150F0E0E65CFC4F1083A091CD03A13020F0E0913A03EA17CB
:2002200009F003C0689423F854981991E991EFBFF991E991A99118951A93E981E09358035D
:20024000E4E1E0935903E0915A03E068E0935A03E8E5F3E0FA93EA93EB81F0E0FA93EA9334
:200260000E94C200E093590310E0E9811E1750F4E12FF0E0E85AFC4FE081EA930E94E100AA
:200280001F5FF3CF5E9BFECF5E9A1881229608951A93E89423F8E0E0E093CD035F9B02C06F
:2002A0001CB1FCCF549A30C01A93E5B5E03059F0E8B7E074E03439F4E0E0E5BDE0E4E8BF27
:2002C000E0E0E093CD0323FE1EC0E0913A03E093CE0310913B03E4E1E0933B03EAE3F3E035
:2002E000FA93EA93E091CE03F0E0FA93EA930E94C200E093CF03A091CF031A1711F4E1E035
:2003000003C00E944801E0E019910895E89423F8E0E0E093CD03E5BDE2BDE0933A03089500
:20032000E0E0E3BFE9B7EE7FE9BFEBB7EF7BEBBF0895DF9ABB24689421F8E5B7E360E5BF63
:20034000E0ECEABFEBB7E064EBBFE0E0E3BFE8B7E160E8BFE9B7E160E9BFDF980895949AE4
:20036000A4E0B0E00E944B064E2EA5E0B0E00E944B06DE2EEBB7E062EBBFE0E0E3BFE9B756
:20038000EE7FE9BFEBB7EF7BEBBF08950A921A92FA926A937A938A939A93AA93BA93EA93C6
:2003A000FA93EFB7EA93DC9A21FE03C00E9499015DC0E7E8E2BFA394E8E0EA1591F4E92DD3
:2003C000E170CE0EEAE0BE1638F4EB2DB394F0E0EA5DFC4F908202C00E949901E1E09E2EC8
:2003E00045C0E9E0EA15E1F5E1E0CE22C91419F00E94990134C0E4E0EB1559F5E0E0E3BF1F
:20040000A091CA03A83010F5E091C803AAE0EA9FF001E858FC4FA0912603B0912703809160
:20042000280390912903A083B18382839383A091C803AF5FA093C803E7E0EA23E093C803B8
:20044000E091CA03EF5FE093CA03C2980E94990106C0E0E0E2BFE1E0E3BF689421F806C0D5
:20046000E92DE170CE0E990CE1E09E2ADC98E991EFBFF991E991B991A99199918991799199
:200480006991F990199009901895DB9AEF93EFB7EF9321FE0AC0EBE4E2BFE1E0E3BF9E2E43
:2004A000AA24E89421F8CC2402C0EEEF9E22EF91EFBFEF91DB9818950A921A92FA926A93EB
:2004C0007A938A939A93AA93BA93EA93FA93EFB7EA9328970E947C06C29AEBB7EF7DEBBF17
:2004E0007894A091CA03A13010F40C943603E091C903AAE0EA9FF001E858FC4FDF010E94F6
:200500003C06E0933003F09331036093320370933303F894A091C903AF5FA093C903E7E07E
:20052000EA23E093C903E091CA03E150E093CA03E0910500F09106006091070070910800C2
:20054000EC83FD836E837F837894A0913003B091310380913203909133030E946A0678F4B9
:20056000E0E3F3E0FA93EA93E3E0F0E0FA93EA930E94C200AE2FE0913303EA1709F06BC031
:20058000DD9AE0E0E0933303E0913003F09131036091320370913303E887F9876A877B87E3
:2005A000E0916001F0E0E0937603F09377032EE130E004E611E03E3188F5D8011C96EC91C2
:2005C000E03021F42E3109F4232F24C0D8010E943C06DF01CB01E885F9856A857B850E947F
:2005E0007006C1F4F801A685AD1590F4D8011C96AC91AA3F28F4D8011C96EC91EF5FEC93C4
:20060000EC81FD816E817F81D80118960E944206DD982AC03F5F015F1F4FCDCF2E31C8F40D
:20062000AFE02A9FF001EC59FE4F8F01E885F9856A857B85D8010E944206D8011C96E1E066
:20064000EC93EC81FD816E817F81D80114960E944206DD9809C0E091CB03F091CC03319640
:20066000E093CB03F093CC030C947102EBB7E062EBBF0E9483062C96E991EFBFF991E9912D
:20068000B991A9919991899179916991F990199009901895E9B7E070E9BFE0E08E2E7E2E56
:2006A0006E2E5E2EE0E0E0936201E0936301E89422F8E9B7E061E9BF0895EEE3EBBDEFE79A
:2006C000EABDE0E0EFBDEDBDECBDE9B7E061E9BFE9E0EEBD08950A92AA93BA93EA93FA93EA
:2006E000EFB7EA930E947C06DE9A539429F4639419F4739409F48394DE987894A091620102
:20070000B09163011196A0936201B0936301A83EE3E0BE0739F4689422F8E0E0E093620109
:20072000E093630110E024E631E01E3190F4D9011C96EC91E03049F0F901A685AD1528F4AF
:20074000D9011E96EC91EF5FEC931F5F215F3F4FECCFA0917603B09177030E94660678F49B
:20076000E0917603F09177033197E0937603F0937703309711F4949A01C0949801C0949A0D
:200780000E9483062496E991EFBFF991E991B991A99109901895A4E0B0E00E944B064E2EFB
:2007A000A5E0B0E00E944B06DE2EA6E0B0E00E944B06E0936001A3E0B0E00E944B06E093CF
:2007C0006101A7E0B0E00E944B060E947506A2B3A3F9A2BB08950E947C0610E024E631E076
:2007E0001E3170F43A932A93E0E0EA93EFE0F0E0FA93EA930E9400061F5F215F3F4FF0CFE3
:200800000E948306249608950E94EB030E944A030E94AF010E94990108950E9490010E94D7
:20082000AF0108950E940404E2E0E0935A03E0E0E0935B03E4E0EA930E941C010895249746
:200840000E947C0630E004E611E03E3110F00C94B104F801A685AD1510F40C94AC04A48562
:20086000A41510F40C94A204D8011D96EC91E03011F00C949604E4E0E0935A03F894D80128
:200880000E943C06E0935B03F0935C0360935D0370935E03F801A085B185828593859F9365
:2008A0008F93BF93AF93A481B58186819781EF91FF916F917F910E942806EC83FD836E8338
:2008C0007F83AC81BD818E819F81A030E1E0BE07E0E08E07E0E09E0714F0EFEF01C0EC815C
:2008E000E0936403F801A481B58186819781EC81FD816E817F810E9432060E942306E093B9
:200900005F03F09360036093610370936203D8011C96EC91E09363037894EDE0EA930E94F7
:200920001C01D8011D96E1E0EC9316C0D8011D96EC91EF5FEC93E150AE2FE0916101E15010
:20094000AE1750F01A930A93E0E0EA93EFE0F0E0FA93EA930E9400063F5F015F1F4F0C94AE
:200960002504E3E0E0935A03E8E5F0E00E944706E0935F03F0936003E2E0E0936203E1E019
:20098000E0936103E0E0E093CB03E093CC03F894E0910500F09106006091070070910800B3
:2009A000E0935B03F0935C0360935D0370935E037894EBE0EA930E941C010E9483062896D1
:2009C0000895E0E0EBBBEFEFEABBE4E0E8BBE7BBE0E0E5BBE4BBECE1E2BBEAE1E1BBE0E0F8
:2009E000E3BFE2BFECBFEFBDEEBDEDBDECBDEBBDEABDE9BDE8BDE2BDE4BDE5BDE3BDE5BF9F
:200A0000E4B7EF7BE4BFE0E0EBBFE9BFE0E8E8B9E0E0E0BFEBB9E8E1EAB9E6E8E0BDE0E019
:200A2000E0BDE7E6E9B9E0E8E8B9E0E0E0BF0E94CB03E0E0E093CA03E093C903E093C803F5
:200A40000E94DA000E948601EFEFEABF78940E945D030E94040422FE04C0E89422F80E9496
:200A60001F040E945401E13011F00C94D305E0913C03E03011F00C944505EFEFA2E0B0E037
:200A80000E9457060C94001C8CC0E13061F4E0913C03E0935A03E0E0E0935B03E4E0EA9397
:200AA0000E941C017EC0E83049F5E8E0E0935A03A3E0B0E00E944B06E0935B03A4E0B0E060
:200AC0000E944B06E0935C03A5E0B0E00E944B06ADE5B3E0F0E0ED93FC93A6E0B0E00E948D
:200AE0004B06E0935F03A7E0B0E00E944B06E0936003E9E0EA930E941C0153C0E93041F589
:200B0000E0913D03A3E0B0E00E945706E0913E03A4E0B0E00E945706E0913F03A5E0B0E085
:200B20000E945706E0914103A6E0B0E00E945706E0914203A7E0B0E00E945706E9E0E093E4
:200B40005A03E3E0EA930E941C010E94CB0329C0E730C9F4E0913C03E0935A03E8E5F0E0EF
:200B60000E944706E0935B03F0935C03EAE5F0E00E944706E0935D03F0935E03E7E0EA934A
:200B80000E941C010EC0E23019F40E94120409C0E53019F40E94040404C0E63011F40E94DB
:200BA0000D040E9448010C942B05FFCF5F9BFECFECB108955D9BFECFE881ECB92196089573
:200BC000E1E0F991F03310F0FA3308F0EE270895E1E0F991F03229F0F93010F0FE3008F0FB
:200BE000EE270895E1E0F991F05340F0FA3038F0FF75F750FA3010F0F03108F0EE27089583
:200C0000B981A881109631F0FC81EB816A8161931197E9F7EB81FC8125960895A991B99195
:200C2000EE27FF276D91662311F03196FBCF0895AA27BB27E991F9910590002011F01196AF
:200C4000FBCFFD010895EA0FFB1F681F791F0895EA1BFB0B680B790B0895EA27FB276827FF
:200C60007927089575956795F795E7950895EE0FFF1F661F771F0895ED91FD916D917C91A2
:200C800013970895ED93FD936D937C9308950590F491E02D0895E199FECFFF93FFB7F89472
:200CA000AEBBBFBBE09AEDB3FFBFFF910895E199FECF9FB7F894AEBBBFBBE09A8DB3E81787
:200CC00019F0EDBBE29AE19A9FBF089500240A160B06089500240A160B0608060906089570
:200CE000EA17FB07680779070895E894EE2309F0689408955A934A933A932A931A930A93A8
:200D000008955D814C813B812A81198108810895FFFFFFFFFFFFFFFFFFFFFFFFFFFFFFFF74
:200D2000FFFFFFFFFFFFFFFFFFFFFFFFFFFFFFFFFFFFFFFFFFFFFFFFFFFFFFFFFFFFFFFFD3
:200D4000FFFFFFFFFFFFFFFFFFFFFFFFFFFFFFFFFFFFFFFFFFFFFFFFFFFFFFFFFFFFFFFFB3
:200D6000FFFFFFFFFFFFFFFFFFFFFFFFFFFFFFFFFFFFFFFFFFFFFFFFFFFFFFFFFFFFFFFF93
:200D8000FFFFFFFFFFFFFFFFFFFFFFFFFFFFFFFFFFFFFFFFFFFFFFFFFFFFFFFFFFFFFFFF73
:203800000C942D1C0C94001C0C94001C0C94001C0C94001C0C94001C0C94001C0C94001C9B
:203820000C94001C0C94001C0C94001C0C94001C0C94001C0C94001C0C94001C0C94001CA8
:203840000C94001C0C94001C0C94001C0C94001C0C94001C320300000000F894EE27ECBB3F
:20386000F1E0FBBFF2E0FBBFE5BFF8E1F1BDE1BD8DE0A2E0BB27ED938A95E9F780E094E044
:20388000A0E6ED930197E9F7E8E5F8E385919591009761F0A591B59105901590BF01F00177
:2038A00005900D920197E1F7FB01F0CFEFE5EDBFE4E0EEBFC0E6D1E00C94AA1D24970A93A2
:2038C000ED81FF2766277727E983FA836B837C8308E0E02F0150E030D9F0E981E07869F017
:2038E000E981FA816B817C810E94541FA7E0B1E080E090E00E94461F06C0E981FA816B815F
:203900007C810E94541FE983FA836B837C83E1CFE9810881269608950A9300E0E02FF0E067
:20392000EE5BFD4FFF93EF930A930E945E1CAF91BF91EC93A02F0F5FAF3F09F0EFCFA1C0D3
:203940000A9300E0E981FA813197E983FA83319659F0AB81BC81ED91AB83BC83E027F0E019
:20396000EE5BFD4F0081EECFE02F088125960895E8E1EAB9E0E0E0BDE9E1E9B908955D9BBA
:20398000FECFE881ECB9219608950A935F9B1EC0CC2029F4E0E0E2BFE3E0E3BF02C0E0E032
:2039A000E2BF0CB1E4E6CE1688F4EC2DC394F0E0E652FE4F0083E0E0EC1520F4E091DA0116
:2039C000EC1509F003C0689422F854985AC00A93E981E0937601E4E1E0937701E091780183
:2039E000E068E0937801E6E7F1E0FA93EA93EB810E94071FE093770100E0E9810E1750F419
:203A0000E02FF0E0EA58FE4FE081EA930E94BF1C0F5FF3CF5E9BFECF5E9A08812296089511
:203A20000A93E89422F8CC245F9B02C00CB1FCCF549A27C00A93E3B7E03049F0E8B7E170DA
:203A4000E13029F4E0E0E3BFE1E0E8BFCC240E94C51C22FE15C0D090DA010091DB01E4E199
:203A6000E093DB01EAEDF1E0FA93EA93ED2D0E94071FEE2E0E1511F4E1E003C00E94101DCC
:203A8000E0E009910895E89422F8CC240E940C1FE093DA010895E7B7E0FDFDCFE881F981C7
:203AA00063E067BFE89522960895E7B7E0FDFDCFE881F98165E067BFE89522960895E7B7C6
:203AC000E0FDFDCFE881F9810A801B8061E067BFE89524960895E7B7E0FDFDCF61E167BF4B
:203AE000E8950895E5E6E0937801E4E5F8E30E945D1FE0937901F0937A0160937B017093D6
:203B00007C01E1E0F4E1E0937D01F0937E01E4E1F0EDE0937F01F0938001E1E0E09382014F
:203B2000E09381010E946B1DE3E8F1E00E940F1FE3E2EA930E94E71C0895E091DC01E093B5
:203B40007801E881E0937901E4E0EA930E94E71C21960895E89420F8E0E0EBBBEABBE4E0F9
:203B6000E8BBE7BBE0E0E5BBE4BBE8E0E2BBEAE1E1BB0E940C1FE2BFE0E0ECBFEFBDEEBD05
:203B8000EDBDECBDEBBDEABDE9BDE8BDE2BDE5BDE4BDE3BDE5BFE4BFE9BFE0E8E8B9E0E09E
:203BA000E0BF0E948C1C0E94B81C0E94431DE0E5F3EC60E070E0E0933E02F0933F02609306
:203BC000400270934102E0E6F1E00E940F1FA0916001B0916101A431E0EDBE0771F4A1E074
:203BE000B0E00E94631FE43141F4A2E0B0E00E94631FE03011F4E1E001C0E0E00E94821FF7
:203C000021F8E0E0A2E0B0E00E946F1F21FE17C0E0913E02F0913F026091400270914102A9
:203C2000319760407040E0933E02F0933F0260934002709341020E947E1F09F4E5C00E94F7
:203C40001A1DE13011F00C94031FACEDB1E0EC91E43641F4A1E0B0E00E94631FE43109F41C
:203C6000D3C0CFC0E53629F4E89421F80E94721DC8C0EA3639F5E091DD01F091DE01E0932C
:203C80004203F09343035090DF0144244514B8F4E0914203F09143033196E0934203F0936A
:203CA000430331970F01A1EEB1E0E42DF0E0AE0FBF1FEC91D0010E946F1F4394E7CF0E949D
:203CC0001B1F9FC0EB3611F00C94A51EE091DD01F091DE01E0934203F09343035090DF01D6
:203CE000E0E1E51508F45E2E44244514B8F4ADE7B1E0E42DF0E0EA0FFB1F0F01A091420375
:203D0000B09143031196A0934203B093430311970E94631FD001EC934394E7CFE091DC017D
:203D2000E0937801E091DD01F091DE01E0937901F0937A01ABE7B1E0E52DF0E0ED93FC93E9
:203D4000E7E1EA930E94E71C5CC0E63649F46090DD017090DE01AA24BB240E941B1F51C0BD
:203D6000E736C9F5EFE6F0E0E615F70510F4E1E02EC00A2C0B2821F40E941F1F0E944B1DB1
:203D800088249924E8E0F0E08E169F0688F4ADEDB1E0F401EE0FFF1FAE0FBF1F0E94591F6D
:203DA0000E94291F0E94321FF40131964F01EACFE0E4F0E0EA15FB0549F40E941F1F0E940F
:203DC000551DF30131963F01AA24BB24E0E0EA930E949D1D16C0E836A1F4E0E4F0E0AE164F
:203DE000BF0638F4EFEFFFEF0E94291F0E94321FF4CF0E941F1F0E94551D0E946B1D0E94A6
:203E00001B1F0E94101D02CF0C940000FFCFF0E0FA93EA930C94A01CE0E0E3BF0895FA9398
:203E2000EA93E8E5F0E0FA93EA93E6E1F0E0FA93EA930C94361FE0E0EA930C949D1DF3013D
:203E40000E944F1F0E944B1FEE0FFF1FFA93EA930895FA93EA93F501EE0FFF1FFA93EA935F
:203E60000C945F1DF50131965F01089599818881009641F0BD81AC81FB81EA8105900D92FC
:203E80000197E1F7FD81EC8126960895EA27FB27682779270895EE0FFF1FEE0FFF1FEE0F3C
:203EA000FF1FEE0FFF1F0895EE0FFF1F661F771F0895ED91FC9111970895059015906591D9
:203EC0007491F0010895E199FECFFF93FFB7F894AEBBBFBBE09AEDB3FFBFFF910895E199D2
:203EE000FECF9FB7F894AEBBBFBBE09A8DB3E81719F0EDBBE29AE19A9FBF0895309760406D
:0E3F000070400895E8940024E011689408953C
:00000001FF
